:090DDF0007110000781E0000BBA2
:100C8400E4F508F509FE7F02FDFB7A007918120CE1
:100C9400587E007F077D007B007A00790A120C5889
:100CA4007E007F047D007B007A00791A120C585371
:0C0CB4001101E4F51275137875141E226E
:100D790075E13C120DBA120D4B120DE9120D1875E1
:060D89000F007510692245
:100A1C00AE08AF098E08EF4402F509AE08AF09EE37
:100A2C00C313EF1330E011AE08AF098E08EF54FD7D
:100A3C00F509120C84120D79AE08AF09EF7803CECC
:100A4C00C313CE13D8F930E00EAE08AF098E08EF01
:100A5C0054F7F509120800AE08AF09EF7802CEC3BF
:100A6C0013CE13D8F930E00EAE08AF098E08EF5450
:100A7C00FBF509120DCDAE08AF09EEC4F854F0C861
:100A8C00EFC4540F4830E013E519B4060EAE08AFAE
:100A9C00098E08EF54EFF509120CC0AE08AF09EE41
:100AAC00C31320E012E519B40626AE08AF09EE1305
:100ABC001313541F30E019AE08AF09EE54FDF508BE
:100ACC008F09AE08AF09EE54F7F5088F09120D62C5
:100ADC00AE08AF09EE1313543F20E012E519B4052C
:100AEC0026AE08AF09EE131313541F30E019AE08ED
:100AFC00AF09EE54FBF5088F09AE08AF09EE54F7B9
:100B0C00F5088F09120DA5AE08AF09EE20E019E526
:100B1C001964046003020A27AE08AF09EE1313131D
:100B2C00541F20E003020A27AE08AF09EE54FEF56D
:100B3C00088F09AE08AF09EE54F7F5088F09120DAE
:040B4C008F020A27E3
:100DBA00C2AC758921758DFD758BFDD28E759850E3
:030DCA00D2AC2286
:03002300020CF4D8
:100CF400C0E0C0D075D000C006C007C2988599185E
:100D0400AE08AF098E08EF4408F509D007D006D025
:040D1400D0D0E03229
:10080000E518120C32088701089D02086B0308C620
:100810000408CF0508FB0609200709400909650AF5
:1008200009850B09B90C09BE0D09E30E09EF0F0983
:10083000F51009FA1109FF120A04130A0A1E0A0C1C
:100840001F0A0F200A14210A14220A19230854AA85
:1008500000000A1BC2ACE4FF74112FF8E6F59930D2
:1008600099FDC2990FBF07F0D2AC22E51120E00537
:1008700043110180035311FEE4F519AE08AF098E50
:1008800008EF4402F50922E514B41E0475140A2287
:10089000E514B40A047514142275141E22E51230EE
:1008A000E0105312F0AE08AF09EE4408F5088F09C6
:1008B0008008E51254F04401F512AE08AF098E0825
:1008C000EF4404F50922E51154F04409F51122E53D
:1008D00011540F4420F511E4F512AE08AF098E084B
:1008E000EF4404F509AE08AF098E08EF4440F5095E
:1008F000751902E4F50BF50CF50D22E511540F44C2
:1009000010F511E4F512AE08AF098E08EF4404F5B6
:1009100009AE08AF098E08EF4480F5097519032266
:1009200075124053110FAE08AF098E08EF4404F55D
:1009300009AE08AF098E08EF4420F50975190122A8
:10094000E4F512E511540F4480F511AE08AF098E9D
:1009500008EF4404F509AE08AF09EE4402F5088F2C
:10096000097519062253110F751202AE08AF098ED0
:1009700008EF4404F509AE08AF09EE4401F5088F0D
:100980000975190422C3E51094FFE50F9400501770
:10099000E51094CDE50F9400500D74322510F5103C
:1009A000E4350FF50F8006750F00751069AE08AFBE
:1009B00009EE4408F5088F0922C295D29422E4F585
:1009C00012E511540F4440F511AE08AF098E08EF3F
:1009D0004404F509AE08AF09EE4404F5088F097523
:1009E000190522AE08AF098E08EF4410F509223030
:1009F000A429C29322D295C29422C297D29622D21F
:100A000097C2962230A514C292228003D29322D29A
:0B0A100095D29422D297D29622D29267
:010A1B0022B8
:100D4B00C2AF758C1FE4F58AD28CD2A9D288D28A15
:070D5B00D2A8D2AAD2AF22F8
:03000B00020BDC09
:100BDC00C0E0C0D075D000C006C00720A402D293DC
:100BEC0020A502D292758C1F758A00051A051BE58B
:100BFC001AB4040675E13C751A00E51BB4100575B2
:100C0C001B00051CE51CB43C14751C00D5140EAE61
:100C1C0008AF098E08EF4401F5095311FED007D037
:060C2C0006D0D0D0E0323A
:03000300020DF0FB
:030DF000050A32BF
:03001300020D33A8
:100D3300C0E0050DE50D7002050C20B408050B7528
:080D43000C00750D00D0E03238
:100D1800E4F5D8F5E9F5F975D902F5EAF5FA75DAE1
:0B0D280042F5ECF5FC75DC42D2DE2247
:070DE900750F0075103722A1
:100DA50043114053117F5312FDAF108FFA8FEAE4C0
:050DB500F5FCF5EC2245
:100D62004311805311BF5312FDE51024CEF5FCF55B
:070D7200ECE4F5FAF5EA22BA
:100D8F0043120253117F5311BFAF108FFC8FECAF83
:060D9F00108FFA8FEA221A
:100DCD00E4F5FAF5EAF5FCF5ECD297D296D293D28A
:020DDD00922260
:100CC000AF0DEFC394055018EF2403FDE433FCC3CC
:100CD000E50D9DE50C9C5016AE108EEA8EFA80E86C
:100CE000E50D450C600875EA6975FA6980F2E4F56E
:030CF000EAF5FA28
:010CF30022DE
:010DF30022DD
:03000000020B50A0
:0C0B5000787FE4F6D8FD75811D020B973C
:100C3200D083D082F8E4937012740193700DA3A351
:100C420093F8740193F5828883E473740293686065
:060C5200EFA3A3A380DF65
:100C5800EF4E6012EF60010EEDBB010B89828A83B3
:100C6800F0A3DFFCDEFA2289F05007F709DFFCA9C0
:0C0C7800F022BBFEFCF309DFFCA9F02217
:100B5C00020A1CE493A3F8E493A34003F68001F289
:100B6C0008DFF48029E493A3F85407240CC8C3339A
:100B7C00C4540F4420C8834004F456800146F6DF69
:100B8C00E4800B0102040810204080900DDFE47E0D
:100B9C00019360BCA3FF543F30E509541FFEE4935E
:100BAC00A360010ECF54C025E060A840B8E493A325
:100BBC00FAE493A3F8E493A3C8C582C8CAC583CA50
:100BCC00F0A3C8C582C8CAC583CADFE9DEE780BE08
:010DE800000A
:00000001FF
