:090F060007140000781E0000BB76
:100D8900E4F508FE7F02FDFB7A00791B120D5D7EFA
:100D9900007F0A7D007B007A00790A120D5D7E00D2
:100DA9007F057D007B007A00791D120D5D531401CA
:0D0DB900E4F51575167875171E85172122B3
:0F0EF70075E13C120EC2120E6B120F10020E3874
:100AA800AF08EF4402F50820A40820A505120ED5CA
:100AB80080F520A402D29320A502D292AF08EF308D
:100AC800E011AF08EF54FEF508120ED5AF09EF4458
:100AD80010F509AF08EFC31330E010AF08EF54FD6D
:100AE800F508120D89120EF7120EE7AF08EF13136F
:100AF80013541F30E00AAF08EF54F7F50812080046
:100B0800AF08EF1313543F30E00AAF08EF54FBF57A
:100B180008120ED5AF08EFC4540F30E00AAF08EF43
:100B280054EFF508120DC6AF09EFC31330E013AF49
:100B380009EFC4540F20E00AAF09EF54FDF509127C
:100B48000EADAF09EF1313543F30E013AF09EFC4F4
:100B5800540F20E00AAF09EF54FBF509120E98AFC5
:100B680009EF30E013AF09EFC4540F20E00AAF09D2
:100B7800EF54FEF509120E82AF08EFC41354073084
:100B8800E00CAF09EFC4540F20E003120BB6AF0816
:100B9800EFC41313540320E003020AAFAF09EFC4F4
:0E0BA800540F30E003020AAF120DFA020AAF3A
:100EC200C2AC758921758DFD758BFDD28E759850DA
:030ED200D2AC227D
:03002300020E1CAE
:100E1C00C0E0C0D075D000C007C29885991BAF0840
:0C0E2C00EF4408F508D007D0D0D0E03229
:10080000E51B120D37088601089C02086B0308D609
:100810000408DF0509330609500709A40909CB0AB2
:1008200009ED0B0A2D0C0A320D0A590E0A610F0A46
:1008300073100A78110A7D120A82130A941E0A960E
:100840001F0A99200A9E210AA0220AA5230854AA59
:1008500000000AA7C2ACE4FF74142FF8E6F5993043
:1008600099FDC2990FBF07F0D2AC22E51420E00C2D
:10087000431401AF08EF4402F508800A5314FEAF99
:1008800008EF4401F508E517B41E0475170A22E5C0
:1008900017B40A047517142275171E22E51530E0E7
:1008A000235315F0AF09EF54EFF509E51C24FB6065
:1008B0000D14600D24026003020AA7020A15020A41
:1008C0001D020A25E51554F04401F515AF09EF4462
:1008D00010F50902099CE51454F04409F51422AFFF
:1008E00008EFC41313540320E036E514540F4420DA
:1008F000F514E4F515751C02AF09EF4408F509AFCE
:1009000008EF4440F508E4F510AF08EF54DFF508B0
:10091000AF08EF547FF508AF09EF54EFF5098011E8
:100920005314DFAF08EF54BFF508AF09EF4410F5DB
:10093000098069E514540F4410F514E4F515AF0867
:10094000EF4404F508AF08EF4480F508751C032256
:10095000AF08EFC413540720E03175154053140F4E
:10096000751C01E4F510AF09EF4408F509AF08EF75
:100970004420F508AF08EF54BFF508AF08EF547FE7
:10098000F508AF09EF54EFF5098011E4F515AF084C
:10099000EF54DFF508AF09EF4410F509AF08EF4455
:1009A00004F50822E4F515E514540F4480F514E429
:1009B000F508AF08EF4404F508AF09EF4402F50964
:1009C000AF09EF54EFF509751C062253140F751586
:1009D00002E4F508AF08EF4404F508AF09EF44015D
:1009E000F509AF09EF54EFF509751C0422E50FC3B3
:1009F00094CD500EE50F94CD50087432250FF50FAD
:100A00008003750F69E51C24FB6012146017240233
:100A10006003020AA7AF09EF4401F50922AF09EF0D
:100A20004404F50922AF09EF4402F50922C295D228
:100A30009422E4F515E514540F4440F514E4F50848
:100A4000AF08EF4404F508AF09EF4404F509751C3D
:100A500005AF09EF54EFF50922AF08EF4410F50890
:100A60002230A443E51CB40107B4020464036037D8
:100A7000C29322D295C29422C297D29622D297C212
:100A8000962230A522E51CB40107B4020464036079
:100A900016C292228003D29322D295D29422800051
:070AA000D297D29622D292F8
:010AA700222C
:100E6B00C2AF758C1FE4F58AD28CD2A9D288D28AF4
:070E7B00D2A8D2AAD2AF22D7
:03000B00020CE400
:100CE400C0E0C0D075D000C00720A402D29320A5D4
:100CF40002D292758C1F758A00051D051EE51DB470
:100D0400040675E13C751D00E51EB41005751E0052
:100D1400051FE51FB43C15751F00E51520E00215FD
:100D240021E5217007AF08EF4401F508D007D0D0C2
:030D3400D0E032DA
:03000300020F14D5
:030F1400050A3299
:03001300020E5387
:100E5300C0E0050DE50D7002050C20B408050B7507
:080E63000C00750D00D0E03217
:100E3800E4F5D8F5E9F5F975D902F5EAF5FA75DAC0
:0B0E480042F5ECF5FC75DC42D2DE2226
:040F1000750F372200
:100E980043144053147F5315FD850FFA850FEAE478
:050EA800F5FCF5EC2251
:100EAD004314805314BF5315FD850FFC850FECE4DF
:050EBD00F5FAF5EA2240
:100E820043150253147F5314BF850FFC850FEC8565
:060E92000FFA850FEA22B1
:100ED500E4F5FAF5EAF5FCF5ECD297D296D293D281
:020EE500922257
:100DC600AF0DEFC394055018EF2403FDE433FCC3C5
:100DD600E50D9DE50C9C501675FA9B75EA9B80E81F
:100DE600E50D450C600875FA9B75EA9B80F2E4F503
:030DF600FAF5EA21
:010DF90022D7
:100BB600E51014602314603D147003020C4E2403E8
:100BC6006003020C57AF08EF4404F50830A403C2D3
:100BD6009322D2937510012230A50DC292750F692A
:100BE600AF09EF4402F50922D292AF08EF4404F5AB
:100BF6000875100222AF09EF131313541F30E015C6
:100C0600AF08EF4410F508851F11852112AF09EFD3
:100C160054F7F50922750FCDAF09EF4402F509C364
:100C2600E512952175F03CA4FFC3E51F95112FF53C
:100C360013C39405401BAF08EF4404F508AF09EF52
:100C46004408F5097510032230A403C293227510D7
:020C5600042276
:100DFA00E510146013047019E4F50AAF09EF54F70B
:100E0A00F509C29275100122740AD3950A5002D2CA
:020E1A00922222
:100EE70030A40AC293AF08EF4402F50822D2932236
:03000000020C5897
:0C0C5800787FE4F6D8FD758121020C9F26
:100D3700D083D082F8E4937012740193700DA3A34B
:100D470093F8740193F5828883E47374029368605F
:060D5700EFA3A3A380DF5F
:100D5D00EF4E6012EF60010EEDBB010B89828A83AD
:100D6D00F0A3DFFCDEFA2289F05007F709DFFCA9BA
:0C0D7D00F022BBFEFCF309DFFCA9F02211
:100C6400020AA8E493A3F8E493A34003F68001F2F4
:100C740008DFF48029E493A3F85407240CC8C33391
:100C8400C4540F4420C8834004F456800146F6DF60
:100C9400E4800B0102040810204080900F06E47EDB
:100CA400019360BCA3FF543F30E509541FFEE49355
:100CB400A360010ECF54C025E060A840B8E493A31C
:100CC400FAE493A3F8E493A3C8C582C8CAC583CA47
:100CD400F0A3C8C582C8CAC583CADFE9DEE780BEFF
:010F0F0000E1
:00000001FF
